:1000000032C04CC04BC04AC049C048C047C046C0BF
:1000100045C044C043C042C041C040C03FC03EC0D4
:100020003DC028C73BC035CC8DCC51CC5BCC61CC1E
:1000300067CC88CC6ACC74CC7ACC80CC39CC5DCD02
:1000400060CD60CD60CD60CD60CD60CD60CD60CD48
:1000500064CD64CD64CD64CD64CD64CD64CD59CD23
:1000600059CD59CD59CD11241FBECFE5D4E0DEBF07
:10007000CDBF11E0A0E6B0E0EEE4FEE102C00590E5
:100080000D92A23EB107D9F722E0A2EEB1E001C085
:100090001D92AB3BB207E1F731D2D7CEB1CF83B3DC
:1000A00090E00090E40102C0959587950A94E2F7EC
:1000B0008170992721E08227817008958093E4015F
:1000C00091E09093E3011092E20195B321E030E0DA
:1000D000A90101C0440F8A95EAF7842F80958923EE
:1000E00085BB84B30090E40102C0220F331F0A9441
:1000F000E2F72095282324BB0895D1DF9091E301F6
:10010000891739F0811103C091E09093E201809347
:10011000E30108958091E20108951092E2010895AB
:100120008FEF88BB85BB82BB0895809378020895CA
:1001300008958091E6011092E60108958091E5010D
:100140001092E501089588EF91E0089587EE91E01F
:100150000895CF92DF92EF92FF9217D8BDD36B0133
:100160007C0120D8C701B601FF90EF90DF90CF90BF
:1001700008950F931F93CF93DF938A01E9019B01A9
:10018000AC01EDE15695479537952795EA95D1F75E
:10019000213031F128F0253051F1273089F13FC06D
:1001A0008B019C0144E036952795179507954A9554
:1001B000D1F7DC01CB01B695A79597958795602F70
:1001C000682B6370633031F070E0FB01E257FF4F42
:1001D000808101C084E0DF91CF911F910F9192CA7D
:1001E0009F71A5D3DF91CF911F910F9178CAB1DF95
:1001F000F801608371838283938381E088830FC0D9
:1002000091FD07C048EF51E05CD481E08093E601A6
:1002100006C047EE51E055D481E08093E501DF91BF
:10022000CF911F910F910895CF93DF9300D000D00D
:100230001F92CDB7DEB736D58823A9F01D8219826B
:100240001A821B821C8235D59E012B5F3F4FAE0167
:100250004F5F5F4F8EDF8D81882329F069817A811E
:100260008B819C814AD50F900F900F900F900F902B
:10027000DF91CF91089580930D0260930C0240931B
:100280000B0288E080930A021092100210920F0273
:1002900010920E02089590910A02892B82BB089554
:1002A00010920A0280E0F7CF88E080930A0280E093
:1002B000F2CFCF93C0910A02C82B8C2F8460EBDF62
:1002C0008AEB8A95F1F700C08C2F8B7FE4DF82E008
:1002D0008A95F1F700C0CF910895CF93DF93C82F8F
:1002E000D62F807F862BE5DF20E1C29FC00111243D
:1002F0008D2BDF91CF91DDCF60E0EFCF81E0FCDF90
:1003000080910D02809309028FE99FE00197F1F738
:1003100000C00000089582E0EFDF80910D0280931D
:1003200009028FE99FE00197F1F700C000000895EE
:1003300080910F02982F946090930F028C60DCCF15
:1003400080910F028E7F80930F028860D5CF8091BD
:100350000F02982F916090930F028960CDCF1F9369
:10036000CF93DF93CDB7DEB728970FB6F894DEBFF3
:100370000FBECDBF182F88E0E6E8F0E0DE01119651
:1003800001900D928A95E1F780910C02861710F486
:100390006FEF680FFE013196E60FF11DE60FF11DBC
:1003A0008081810F8068A8DF80910D02811B80937E
:1003B000090228960FB6F894DEBF0FBECDBFDF91BD
:1003C000CF911F91089561E088DF809109028150EB
:1003D0008093090208950F931F93CF93DF938B01AE
:1003E000877028E0829FC0011124806485DFE801C6
:1003F000085F1F4F8991E7DFC017D107D9F7DF9159
:10040000CF911F910F9108950F931F93CF93DF9377
:10041000C091090200E010E0D0E00C171D072CF499
:1004200080E2D1DF0F5F1F4FF8CFDF91CF911F9197
:100430000F9108950F931F93CF938C01C0E0F801A3
:10044000EC0FF11D8081882319F0CF5FBCDFF7CF5F
:10045000CF911F910F9108958FEF81BB12BA109227
:10046000100280910C02823018F098E090931002F4
:1004700090910B02992339F0813029F48091100278
:100480008460809310022FE788E391E02150804040
:100490009040E1F700C0000080910A02FCDE8FEC82
:1004A00097E00197F1F700C0000080E302DF8FECD6
:1004B00090E20197F1F700C0000080E3FADE87ECDC
:1004C00090E00197F1F700C0000080E3F2DE87ECD6
:1004D00090E00197F1F700C0000080E2EADE809131
:1004E0001002806209DF84E080930F0221DF06DFC3
:1004F00082E080930E0286E0FFDE0DCF11DE84E6FF
:1005000014DE01E020E03AEC4AE95BE360E070E0F1
:1005100080E090E064D6D1D120E03AEC4AE95BE398
:1005200060E070E080E090E098D2789486E548D46E
:1005300080D0FBDA79DEFCDD8FEC97E00197F1F7F4
:1005400000C00000F6CF83B390E00090140202C018
:10055000959587950A94E2F780FF02C082E001C07A
:1005600080E023B330E00090130202C03595279558
:100570000A94E2F720FD816008958093140260934D
:100580001302109212021092110245B321E030E0E2
:10059000F90101C0EE0F8A95EAF7C90101C0880F81
:1005A0006A95EAF78E2B8095842385BB84B3A901D5
:1005B0000090140202C0440F551F0A94E2F7009005
:1005C000130202C0220F331F0A94E2F7242B209556
:1005D000282324BB0895B7DF90911202891791F068
:1005E000933019F4813071F404C0911107C0823046
:1005F00049F4209111022F5F20931102923029F4C7
:10060000882339F08093120208959130D9F783300E
:10061000C9F790911102915090931102F3CF8091FC
:10062000110287FD8D5F8595859511F0109211025D
:100630000895CF93DF93CDB7DEB728970FB6F89420
:10064000DEBF0FBECDBF48E050E060E070E0CE01FD
:100650000196D5DB48E050E061E970E0CE010196FB
:10066000C0DB892B41F448E250E068E070E089E7A4
:1006700092E0C5DB7EC0E9E7F2E0108211821282CF
:1006800013821482158216821782389682E0E13A2C
:10069000F80799F7109279028AEC80937A029AE926
:1006A00090937B028BE380937C0210927D021092E8
:1006B0007E0210927F0281E080938002109281027C
:1006C00021EB2093820229EB209383022AE32093DB
:1006D0008402109285021092860210928702809303
:1006E000880228E52093890223E920938A0225EFD6
:1006F00020938B022CE320938C0210928D02109297
:100700008E0210928F02809390021092910228E83C
:10071000209392022DEC2093930225ED20939402D6
:1007200080939502109296021092970280939802FD
:1007300020EC2093990290939A029CEA90939B025A
:1007400097EE90939C0280939D0210929E021092CD
:100750009F028093A00248E050E060E070E081E9F1
:1007600090E05DDB48E250E068E070E089E792E00D
:1007700056DB28960FB6F894DEBF0FBECDBFDF91D3
:10078000CF910895BF92CF92DF92EF92FF920F9395
:100790001F93CF93DF93A82FB02E6901D42FC52FBD
:1007A000262F30E040E050E060E070E080E090E034
:1007B00008E3BFDAE8E0AE9FD0011124FD01E7585D
:1007C000FD4F2E293F294B29512B6C297D298D2B3B
:1007D0009C2B208331834283538364837583868378
:1007E0009783BD01685F7F4F48E050E0CF01DF9104
:1007F000CF911F910F91FF90EF90DF90CF90BF901E
:100800000ECBAF92BF92CF92DF92EF92FF920F93F7
:100810001F93CF93DF936B01DA0128E0829FC00121
:100820001124FC01E758FD4FA080B180E280F380E5
:100830001481D581C6819501A701612F7D2F8C2F51
:10084000978108E391DAF6012083AC921196BC926D
:1008500011971296EC9212971396FC921397149696
:100860001C9314971596DC9315971696CC931697B0
:1008700017961C92DF91CF911F910F91FF90EF90EF
:10088000DF90CF90BF90AF90089587B38C6287BB05
:100890008BE58DB90895C298E7ECF0E03197F1F758
:1008A00000C000009FB9779BFECF8FB9779BFECF2A
:1008B000C29A089580E091E0EECFE7DFFBCF815050
:1008C000833038F4E82FF0E0E756FF4F808190E066
:1008D000089580E091E00895AF92BF92CF92DF92A9
:1008E000EF92FF920F931F930CE123DAE0E4AE2E18
:1008F000F8E7BF2EADE7CA2EDD24D394E12CF12C0E
:1009000000E010E0CCD9AEE254DAB8EEAB2EE3E072
:10091000BE2EC12CD12CC3D9B901CA011F910F9190
:10092000FF90EF90DF90CF90BF90AF900895AF927F
:10093000BF92CF92DF92EF92FF920F931F93CF93CC
:10094000DF93DC01CB01A12C2AEBB22E3DE1C32EBB
:1009500042EDD42E55E0E52EF12C00E010E09C0194
:10096000AD0160E070E080E090E01FD90CE1FCD9BF
:10097000DF91CF911F910F91FF90EF90DF90CF907B
:10098000BF90AF900895AF92BF92CF92DF92EF9257
:10099000FF920F931F930CE1CCD9E0E4AE2EF8E761
:1009A000BF2EADE7CA2EDD24D394E12CF12C00E05C
:1009B00010E075D9AEE2FDD9B8EEAB2EE3E0BE2E65
:1009C000C12CD12C6CD9A12CFAEBBF2EADE1CA2ED3
:1009D000B2EDDB2EE5E0EE2EE8D80CE1C5D9AEE2B3
:1009E000E8D91F910F91FF90EF90DF90CF90BF90CB
:1009F000AF900895CF92DF92EF92FF920F931F93E3
:100A0000CF93DF936B017C01842F222329F0C0E078
:100A1000D0E800E018E204C0C0E0D0E400E010E25A
:100A20004EDF802B912B37DFC6019F738C2B9D2BC4
:100A300032DF8EE0F694E794D794C7948A95D1F785
:100A4000C6019F738C2B9D2BDF91CF911F910F912E
:100A5000FF90EF90DF90CF901ECFAF92BF92CF92DA
:100A6000DF92EF92FF920F931F93CF93C02F0CE171
:100A700060D9E0E4AE2EF8E7BF2EADE7CA2EDD2444
:100A8000D394E12CF12C00E010E009D9AEE291D929
:100A9000B8EEAB2EE3E0BE2EC12CD12C00D9F22F44
:100AA000E42F20E04C2F6F2F732F8E2F952FCF9197
:100AB0001F910F91FF90EF90DF90CF90BF90AF907C
:100AC00099CF0F931F938B019C01F5E136952795E4
:100AD00017950795FA95D1F7202F2770322F330FEE
:100AE000230F022F10E0FA01E00FF11F138222E022
:100AF00030E0F801E20FF31FE40FF51FA62FAF77E8
:100B0000A083E7E09695879577956795EA95D1F765
:100B10002150310970F71F910F910895FC0181E078
:100B20009081911180E00895CF93DF93EC01FA0159
:100B300090E0DB01A90FB11D2C91308181E0830F82
:100B40008083DE01A30FB11D2C939F5F2111F1CF94
:100B5000808181508083DF91CF910895EF92FF9241
:100B60000F931F93CF93DF93FC01EB01252F8C0193
:100B70000C5F1F4F30E09AE0E92EF12C311105C0D7
:100B8000CE01B701EBD7805D01C080E2D8018E9322
:100B90008D01CE01B701E2D7EB01209709F431E0D6
:100BA0000E171F0759F7EF0129968F010B5F1F4F93
:100BB0008AE0E82EF12C842F922FB701CFD7805DE9
:100BC0008A93462F272FC017D107A9F78EE2848377
:100BD0001186DF91CF911F910F91FF90EF900895B3
:100BE000823029F0833031F084EA90E0089580EA81
:100BF00090E008958CE990E008958150833030F4BE
:100C0000E82FF0E0E054FF4F808108958DE20895D1
:100C1000CF92DF92EF92FF920F93CF93DF931F92C9
:100C2000CDB7DEB77C01E62FBA01E150E33040F4E6
:100C3000F0E0EE0FFF1FE654FF4FC080D18004C0EC
:100C400088EAC82E80E0D82EA90185E192E086DFEF
:100C50001982AE014F5F5F4FB601C70165DFAE017C
:100C60004F5F5F4F6CEA70E0C7015EDFAE014F5F20
:100C70005F4F65E172E0C70157DF802FB1DFAE0142
:100C80004F5F5F4FBC01C7014FDF0F90DF91CF91E6
:100C90000F91FF90EF90DF90CF90089586B7856C0D
:100CA00086BF08959091390281E0911101C080E0E2
:100CB0000895809139028823E1F0E0913B0281E0C0
:100CC0008E0F80933B0284E0E89FF0011124E05CEA
:100CD000FD4F608171818281938120913B02283098
:100CE00010F010923B0220913902215020933902DA
:100CF000089560E070E0CB01089560933C0270932A
:100D00003D0280933E0290933F020895CF93DF937C
:100D1000262F237009F051C066956695E0E0F0E05B
:100D2000A0E0262F30E0E217F3070CF046C0EC01FC
:100D3000CA0FD11D488150E060E070E0762F652F2A
:100D4000542F4427B1E0BA0FEC01CB0FD11DB8816D
:100D50004B2B762F652F542F4427B2E0BA0FEC01AE
:100D6000CB0FD11DB8814B2B762F652F542F4427E5
:100D7000B3E0BA0FEC01CB0FD11DAC5FB8814B2BA8
:100D8000C0913A02B1E0BC0FB0933A02B4E0CB9FFD
:100D9000E0011124C05CDD4F488359836A837B8363
:100DA00040913A02483010F010923A0240913902D4
:100DB0004F5F409339023196B6CFDF91CF910895BE
:100DC000880F82B985EC86BF10923A0210923B02DE
:100DD00010923902089585ED86BF06B604FCFDCF5A
:100DE000089560932F02282FA1E3B2E0FC018E2F1B
:100DF000821B861718F481918D93F9CF0895CF93B4
:100E0000DF9300D000D0CDB7DEB7FE0131969E0152
:100E10002B5F3F4FCF0140913C0250913D026091CA
:100E20003E0270913F02419340913C0250913D023D
:100E300060913E0270913F02452F562F672F772712
:100E400040933C0250933D0260933E0270933F02F8
:100E5000E217F30701F764E0C4DF0F900F900F90E3
:100E60000F90DF91CF910895811118CF86B78568D3
:100E700086BF08951F920F920FB60F9211242F93E1
:100E80003F934F935F936F937F938F939F93AF9312
:100E9000BF93EF93FF9381B18C7F803961F1A0F410
:100EA000803731F140F4803619F1883609F181112B
:100EB0006BC091DF69C08038F1F0883809F460C0F8
:100EC000883709F061C014C0803BD9F140F4803A02
:100ED00019F1883AB1F1883909F056C051C0803C07
:100EE00009F451C0883C09F44EC0883BC1F14CC0A4
:100EF0001092260248C080912602883008F040C037
:100F0000E091260281E08E0F8093260283B1F0E00B
:100F1000E95DFD4F808337C080912602883030F430
:100F2000E0912602F0E0E95DFD4F108254DF609110
:100F3000260287E292E0EADE1092260285EC86BF66
:100F400023C01092300210922F0259DF80912F029D
:100F5000811105C081E080932F0210923102E0914F
:100F6000300281E08E0F80933002F0E0EF5CFD4FA5
:100F7000808183B99091300280912F02981718F0E8
:100F800080E072DF01C08ADEFF91EF91BF91AF91E7
:100F90009F918F917F916F915F914F913F912F9191
:100FA0000F900FBE0F901F9018952F923F924F9267
:100FB0005F926F927F928F929F92AF92BF92CF92E9
:100FC000DF92EF92FF920F931F93CF93DF93CDB7F2
:100FD000DEB727970FB6F894DEBF0FBECDBF4983AB
:100FE0005A836B837C838F8369817A8180E090E070
:100FF00020E137E240E050E029D6EB81FC815F013F
:10100000C12CD12CE12CF12C00E010E0C9D6EF81ED
:10101000E23039F0E33081F4B8EEAB2EE3E0BE2EDF
:10102000C4D5F8EEAF2EA3E0BA2EC12CD12CE12C02
:10103000F12C00E010E0B9D5EAE0AE2EB12CC12CC5
:10104000D12CE12CF12C00E010E029D627960FB628
:10105000F894DEBF0FBECDBFDF91CF911F910F91EE
:10106000FF90EF90DF90CF90BF90AF909F908F90C8
:101070007F906F905F904F903F902F9008952F92A8
:101080003F924F925F926F927F928F929F92AF9218
:10109000BF92CF92DF92EF92FF920F931F93CF9365
:1010A000DF934901582E38012F3F19EC31071AE917
:1010B00041071BE35107610571058105910559F051
:1010C00050F083E0F3018483F0EAAF2EA6E8BA2E55
:1010D000CC24C39413C02F33F2E43F07FFE04F0743
:1010E0005105610571058105910581F078F082E077
:1010F000F3018483E4E6AE2EB12CC12CD12CE12C7B
:10110000F12C00E010E0852DCAD50FC081E0F3017D
:1011100084832AE0A22EB12CC12CD12CE12CF12CFD
:1011200000E010E09401852D40D529014A01D62F19
:10113000C72F1C0180E1A82E97E2B92EC12CD12C1B
:10114000E12CF12C00E010E0C101A9D5F3012083CE
:1011500031839201A4016D2F7C2FC1019ED5F30133
:1011600022833383DF91CF911F910F91FF90EF90F6
:10117000DF90CF90BF90AF909F908F907F906F90B7
:101180005F904F903F902F9008954091A70250910B
:10119000A8026091A9027091AA028091AB0290917D
:1011A000AC0203CF8091AC020895809184009091AD
:1011B00085008F3F2FEF920781F0009731F0019764
:1011C000909385008093840008C08FEF9FEF9093E9
:1011D00085008093840081E0089580E008959F92C7
:1011E000AF92BF92CF92DF92EF92FF920F931F9335
:1011F000CF93DF93922EA32EB42EC52ED62EE72E9C
:10120000F82ED92FC02F40E062E080E134D824D9F5
:101210004BD863E082E0B1D981E050D707EA12E011
:10122000292D3A2D4B2D5C2D6D2D7E2D8F2D9D2F33
:1012300026DFC093AC02DF91CF911F910F91FF90F9
:10124000EF90DF90CF90BF90AF909F90089569EDA1
:1012500071E081E0C0D861ED71E082E0BCD869EC5A
:1012600071E083E0B8D861EC71E084E0B4D869EB58
:1012700071E085E0B0D861EB71E086E0ACD869EA56
:1012800071E087E0A8C80F93CF93DF932091A90264
:101290003091AA024091A7025091A8020091AB029E
:1012A0006091AC0280E692E0B3DC50D7EC0160E0E4
:1012B00080E055D8CE0132DC882321F083EC90E029
:1012C000B9D803C0CE01B6D89FD861E080E047D836
:1012D00080E692E0DF91CF910F91ACC82F923F92C0
:1012E0004F925F926F927F928F929F92AF92BF9236
:1012F000CF92DF92EF92FF920F931F93CF93DF93E2
:10130000482E562ED42FC52F8901109274021092A8
:101310007502F4D75A94ED2EFC2EE80183EBC82E0B
:1013200082E0D82E00E010E0642C712C852C912CEA
:1013300006151705ECF4F701A190B1907F013880F4
:10134000298089919991F601819391936F010815F4
:10135000190529F4622D832D02D881E034D8622D3D
:1013600081E0830DFCD7C50165D80F5F1F4FE0CF2B
:101370004092740250927502DF91CF911F910F91AC
:10138000FF90EF90DF90CF90BF90AF909F908F90A5
:101390007F906F905F904F903F902F9008951F9394
:1013A000CF93DF93C0917502B5D6882321F0B5D6CF
:1013B00081E08C0F32C01091740231D9882361F121
:1013C00090917502890F082E000C990B612F012E48
:1013D000000C770BD7D3D82F87FF04C0EEEFE10FB7
:1013E000DE2FD81BD0937502CD17B1F0EC2FF0E0B3
:1013F000EE0FFF1FED54FD4F61818081B0D780E279
:10140000E2D7ED2FF0E0EE0FFF1FED54FD4F6181AD
:101410008081A5D781E0D7D780E0DF91CF911F9160
:101420000895AB0129E931E0682F82E057CFCF93CF
:10143000DF93EB0125E931E0682F82E04FDF60E0C8
:1014400080E08DD7CE01DF91CF91F4C7AB012DE8BD
:1014500031E0682F84E042CF51D784ED90E0EAD7A5
:1014600061E080E07CD785EE90E0E4D719D782E098
:101470008093730208954ED6882321F04ED685E0DE
:101480008093730208958CED95E09093850080938E
:10149000840034D786EF90E0CDD784E08093730248
:1014A0003CD6D5DE61E080E05AD74DD6C3D7ACC775
:1014B00040D6882329F061E080E051D744D6BAD7DE
:1014C00074DE882321F085E08093730226C622D63D
:1014D0008111F9CF089512D7D6DE86E0809373028A
:1014E00080E395E79093850080938400DDC65DDE00
:1014F000882319F081E0809373020CD6882321F0B1
:101500000CD687E08093730219D6882331F060E00F
:1015100080E025D71BD68ED777C70895EFD66CE726
:1015200070E081E093DF88E080937302089537DFF5
:10153000823059F018F4813031F00895833039F059
:10154000843039F0089585E005C089E003C08EE05D
:1015500001C080E1809373020895D0D668E770E0FF
:1015600081E05FDF81E180937302089518DF8130AD
:1015700019F0823021F008951092720203C081E0C8
:101580008093720282E1809373020895B7D660E778
:1015900070E081E05BDF83E1809373020895DF9266
:1015A000EF92FF920F931F93CF93DF93CDB7DEB7E8
:1015B00029970FB6F894DEBF0FBECDBFF0DED82E50
:1015C000882309F442C0809172028823C1F08130DF
:1015D000C9F54091A7025091A8026091A9027091AB
:1015E000AA028091AB029091AC02DFDC79018A0102
:1015F0009B01AC016091AC028D2DC4D823C084E066
:10160000898719821A821B821C821D821E821F8278
:101610001886AE014F5F5F4FBE01675F7F4F8D2D14
:10162000F0D829813A814B815C816D817E8107EA06
:1016300012E08F81988523DD89858093AC0281E05B
:101640008093760285E08093730229960FB6F89412
:10165000DEBF0FBECDBFDF91CF911F910F91FF90E5
:10166000EF90DF900895CF93DF9348D610927102E8
:1016700060E080E074D683E0A6D6C7EAD2E04A8173
:101680005B816881798180E692E068DA61E080E0E0
:1016900066D682E098D68D81B0DA95D680E493D66E
:1016A00080E692E0C7D68C819BDAC4D661E08FE0F9
:1016B00056D684E088D68AE08093730286E0FE01E5
:1016C000ADEAB2E001900D928A95E1F7DF91CF91FA
:1016D000089580917302863009F4FDCE08950F932A
:1016E0001F9301EA12E0CBDC86E0F801A7EAB2E042
:1016F00001900D928A95E1F781E0809376021F9127
:101700000F91E7CF8093AC0281E080937602E1CF26
:101710000F931F93CF93FED4882309F44BC0FDD4BD
:10172000E09171020E2E000CFF0BE356FE4F8081FC
:10173000882391F18F30C1F548E650E06DE071E00B
:1017400081E075DE4091AD025091AE026091AF0232
:101750007091B0028091B1029091B20226DC13D94F
:1017600001EA12E08CDC4091A3025091A402609146
:10177000A1027091A20280E692E0F0D961E080E0DF
:10178000EED58EE720D680E692E054D68091A50271
:1017900027DA50D68CE00CC04CE650E065E071E0F2
:1017A00082E045DE8DE004C061E0D9D5D0D58BE084
:1017B0008093730234D7C82F882329F1E0917102F6
:1017C0000E2E000CFF0BE356FE4F60E08081C7D564
:1017D00080E2F9D5E0917102EC0FE7FD04C0EC3036
:1017E0001CF0E0E001C0EBE0E09371020E2E000C73
:1017F000FF0BE356FE4F60E08081B1D583E0CF91CF
:101800001F910F91E0C5CF911F910F910895DF9225
:10181000EF92FF920F931F93CF93DF9300D000D0EE
:1018200000D0CDB7DEB776D4882329F076D488D51A
:101830008AE080937302F3D6D82E882309F4FFC080
:10184000E09171020E2E000CFF0BE356FE4F61E09B
:10185000808185D50091AD021091AE02E090AF027B
:10186000F090B002E09171020E2E000CFF0BE356D7
:10187000FE4F8081482F082E000C550B660B770B0E
:10188000FA013197EC30F10508F05CC0ED5EFF4FD6
:1018900009949091B2029D0D191624F495301CF410
:1018A000892F01C084E08093B202A7D98CD54AC0A9
:1018B0008091B1028D0D181624F484301CF081E063
:1018C00001C083E08093B1028BD9B4D53BC028EE30
:1018D00033E04D2D4203C001439F900D1124080FAA
:1018E000191F30C08D2D94E68902000D111D1124A1
:1018F00029C0ED2D4AE0E402000D111D112422C083
:101900000D0D111DD7FC1A951DC028EE33E04D2D8D
:101910004203C001439F900D1124E80EF91E12C02E
:101920008D2D94E68902E00CF11C11240BC0ED2DE5
:101930004AE0E402E00CF11C112404C0ED0CF11C9F
:10194000D7FCFA94F7FE07C080EFE81A88EDF80A92
:101950000150110909C090E1E91697E2F90624F057
:101960000F5F1F4FE12CF12C17FD07C0083EE3E08D
:101970001E072CF007EE13E002C000E010E080919B
:10198000B102833021F586E0EDEAF2E0DE01119646
:1019900001900D928A95E1F7402F1A8309836E2DED
:1019A000FC82EB825A817C818D819E81FEDA211539
:1019B0003D4D4E40594E624071058105910539F00B
:1019C00030F088E8E82E83E1F82E0CE010E08091FA
:1019D000AD029091AE028017910739F48091AF0269
:1019E0009091B0028E159F0599F0A701B80180E68D
:1019F00092E0B4D861E083E0B2D480E692E01AD5F8
:101A00001093AE020093AD02F092B002E092AF02EA
:101A1000E09171020E2E000CFF0BE356FE4F61E0C9
:101A2000808126960FB6F894DEBF0FBECDBFDF9142
:101A3000CF911F910F91FF90EF90DF9090C4269669
:101A40000FB6F894DEBF0FBECDBFDF91CF911F91CF
:101A50000F91FF90EF90DF900895A1DC813019F095
:101A6000823071F0089596E0EDEAF2E0A7EAB2E084
:101A700001900D929A95E1F78093760285E001C07E
:101A800089E08093730208958ADC813019F08230F6
:101A900019F0089585E001C089E0809373020895EC
:101AA0002DD43BD360E670E08091AC02CFDC8FE0B8
:101AB00080937302089573DC823041F018F4813012
:101AC00029F007C0833011F0843019F48093AC0200
:101AD00002C0882331F085E08093730281E0809317
:101AE00076020895E09173028E2F90E08431910583
:101AF000D8F4FC01E15EFF4F099483E08093730208
:101B00000895AACCB8CCBFCCD3CCE5CCF0CC06CDD4
:101B10000ECD23CD2BCD3ACD42CDA5CDF9CD77CE6F
:101B20009CCFB2CFBDCFC7CF08950F9354D5E5D288
:101B3000D9DF8091760210927602882369F0E091D5
:101B4000AC02E150E33028F4F0E0E657FE4F0081AC
:101B500001C000E01ADB81D70F910895AA1BBB1BBF
:101B600051E107C0AA1FBB1FA617B70710F0A61B9D
:101B7000B70B881F991F5A95A9F780959095BC01BE
:101B8000CD01089597FB072E16F4009406D077FD3B
:101B900008D0E4DF07FC05D03EF4909581959F4F77
:101BA0000895709561957F4F0895DF93CF931F93AC
:101BB0000F939A9DF02D219FF00D8B9DF00D8A9D26
:101BC000E02DF10D039FF00D029FE00DF11D4E9DE4
:101BD000E00DF11D5E9DF00D4F9DF00D7F936F9315
:101BE000BF92AF925F934F93D501EFD08B01AC01C1
:101BF000D701EBD0EB01E80FF91FD6011FD02F91D1
:101C00003F91D601E2D0C60FD71FE81FF91FAF9151
:101C1000BF9114D02F913F91D8D0C60FD71FE81F86
:101C2000F91FD601D2D0E60FF71F9801BE01CF01F0
:101C300011240F911F91CF91DF910895C6D0460FC7
:101C4000571FC81FD91F08F431960895E894DF93F1
:101C5000CF93FC01DB01B9D07F936F93E9019A0127
:101C6000AC01BF93AF933F932F93DF01AED026F427
:101C70006C1B7D0B820B930B9E01EB01FC01DEDFE5
:101C8000AF91BF912F913F91D9DFBE01CF01F901F3
:101C90002F913F91CF91DF910895689401C0E8940E
:101CA0008F929F92CF93DF9305D0DF91CF919F903A
:101CB0008F90089588249924F401E401B0E41B2E48
:101CC000D4019D158E049F04E007F10738F4FC0150
:101CD0004B01CA01B901AD019E011694220F331FB9
:101CE000441F551F661F771F881F991F881C991C4A
:101CF000EE1FFF1FCC1FDD1FAA1FBB1F8A149B04F2
:101D0000EC05FD05CE05DF05A007B10748F08A18F0
:101D10009B08EC09FD09CE09DF09A00BB10B21607E
:101D20001A94E1F62EF49401AF01BE01CD01000C2E
:101D300008950F93083090F0982F872F762F652FF6
:101D4000542F432F322F22270850F4CF220F331F56
:101D5000441F551F661F771F881F991F0A95B2F7EA
:101D60000F91089597FB10F8169400080F93083010
:101D700098F00850232F342F452F562F672F782F98
:101D8000892F902DF4CF0594979587957795679532
:101D900057954795379527950A95AAF70F91089576
:101DA0002A0D3B1D4C1D5D1D6E1D7F1D801F911F4B
:101DB00008950024A7FD00942A0F301D401D501DDA
:101DC000601D701D801D901D0895A29FB001B39FDE
:101DD000C001A39F01D0B29F700D811D1124911DE0
:101DE0000895FB01DC014150504030F08D9101908D
:101DF000801919F40020B9F7881B990B0895DC01AC
:101E0000CB01FC01E199FECF06C0FFBBEEBBE09A1F
:101E100031960DB20D9241505040B8F70895DC0153
:101E2000CB0102C02D9105D041505040D8F7089504
:101E3000262FE199FECF9FBB8EBB2DBB0FB6F8942A
:0E1E4000E29AE19A0FBE01960895F894FFCF42
:101E4E00120119011F0127012C0130012C01300153
:101E5E0034013C0144014C015401630171017601CE
:101E6E007D018201FFFF00004000140054000203B8
:101E7E00014B4D5347313030002800024D487A0057
:101E8E006B487A0020487A002D2D2D0040005072AC
:101E9E00730053696E0054726A00AE00B200B60051
:101EAE00050706576369736E696A2003203E206D2D
:101EBE00656E75002D2D3E206B6D53696747656EFF
:101ECE00203C2D2D002020202057796761737A61E8
:101EDE00637A202020006B6D53696747656E203151
:101EEE002E302E3000416E61756C756A00557A7910
:101EFE006A0050726F73742E0053696E75730054BE
:101F0E00726F6A6B61740057796C2E0054616B00AE
:101F1E004E69650055737461772E31005573746187
:101F2E00772E320055737461772E330055737461BA
:101F3E00772E340057637A7974616A2075737461F1
:101F4E00772E005A617069737A2075737461772EDB
:101F5E000057726F6300437A6573742E0046616C8E
:101F6E0061005573746177692E0001020300000849
:101F7E00000001080107000C000000000100010331
:101F8E0004050608090A0B0C0F08141414050505A0
:101F9E000208080815150202021C14141405050582
:101FAE0007010102021414080820202020201F0E11
:101FBE00040103070F0703012010181C1E1C181024
:021FCE002000F1
:00000001FF
