:100000000AC011C010C00FC00EC00DC00CC00BC084
:100010000AC009C008C011271FBFCFE5D0E0DEBF6E
:10002000CDBF09D008C1ECCF41B1487F41B942B141
:10003000476042B90895CF93DF9300D000D0CDB789
:10004000DEB748ED4CBF16BFEFDFE0B1E095E770DB
:1000500040B147704730E1F74FEF50E762E0415061
:1000600050406040E1F700C00000E150E73060F42C
:10007000F0E0EE0FFF1FEE0FFF1FE65CFD4B41911E
:1000800051916191708104C04BE45CE661EA70E0DB
:10009000CF5FDF4F4993599369937883C450D04021
:1000A00043D041E0CF5FDF4F699179918991988189
:1000B000A4D0BADF4AB7417F44604ABF4AB7416023
:1000C0004ABF889580E090E00F910F910F910F91BA
:1000D000DF91CF91089541B1476041B942B1476086
:1000E00042B90895119A109842E04A95F1F700C07C
:1000F00040E150E097FD02C0129801C0129A880FAB
:10010000991F119865E06A95F1F70000119A62E075
:100110006A95F1F700C04150510B61F7109A109A9F
:10012000089580E091E0DECFD6DFFBCF81508330B1
:1001300040F490E0E82FF92FEA5AFD4B808190E0DF
:10014000089580E091E008952F933F93CF93DF933C
:1001500000D000D000D0CDB7DEB7CD5FDF4F6993C0
:10016000799389939883C650D040842FC35FDF4F23
:100170004881CD50D040442329F020E030E840E0D1
:1001800058E204C020E030E440E050E2CE5FDF4FB0
:1001900058834A93C150D040C9DFCF5FDF4F4991A8
:1001A0005881C250D040842B952B9CDFCD5FDF4F10
:1001B00089919881C450D0409F73822B932B92DFFA
:1001C000CD5FDF4F49915991699178818EE07695A5
:1001D0006795579547958A95D1F7842F952F9F73EB
:1001E000822B932B0F910F910F910F910F910F91E4
:1001F000DF91CF913F912F9175CFCF93DF9300D0B7
:1002000000D0CDB7DEB7CF5FDF4F69937993899385
:100210009883C450D0401F93CF5FDF4F699179918D
:100220008991988191DF0F910F910F910F910F910B
:0A023000DF91CF910895F894FFCFFD
:10023A004790A7005E620B053C823C0569FD2D01D3
:0F024A00D2FA5B02A5F5B70477F013072800027C
:00000001FF
